:020000021000EC
:1000B400411122C406C6971700009387879A2A84A1
:1000C40081C78145EF00B01983A7C18691C3829788
:1000D4002285EF00F07D973100009381E180138544
:1000E4008186138601A8098E8145EF00D00B171570
:1000F40000001305A586BD28EF00300002454C0022
:100104000146992875B783C7818685EB930700005C
:100114008DC3411117150000130545FC06C6970051
:100124000000E7000000B24085472384F1864101C6
:10013400828085472384F186828082809307000031
:1001440099CB9385418A17150000130525F91703E8
:100154000000670000008280411106C622C4000826
:10016400C5671385870BF52E81473E85B24022442F
:1001740041018280AA858146014601456F00B00392
:10018400411122C406C62A842316B5002317C500CC
:10019400232005002322050023240500232205062D
:1001A40023280500232A0500232C05002146814528
:1001B4001305C505EF00207F970700009387273BB1
:1001C4005CD0970700009387C73D1CD497070000B5
:1001D400938707425CD4970700009387C7441CD8D1
:1001E40000D0972700009387E7FB630AF400938706
:1001F40041926306F4009387C1986319F4001305D0
:1002040084052244B24041016F008078B240224408
:100214004101828017260000130606ED97150000A1
:100224009385E5C5172500001305C5EC09A44C41C9
:10023400411122C406C6972700009387A7F62A8493
:100244006384F500EF0070430C4493874192638507
:10025400F5002285EF0070424C449387C19863886F
:10026400F50022852244B24041016F001041B240A2
:10027400224441018280FC51858B99EF83D7C500CC
:1002840093F7072091EBA84D411106C6EF00C0700B
:10029400B24001454101828001458280FC51858B39
:1002A40099EF83D7C50093F7072091EBA84D41112F
:1002B40006C6EF00206FB24001454101828001452E
:1002C4008280411197070000938707F50146914505
:1002D40017250000130505ED06C623A6F1864D3546
:1002E4000546A54513854192613DB2400946C9457D
:1002F4001385C198410169B5138501896F00C069EF
:10030400138501896F00006A41114AC006C622C4E0
:1003140026C22A89D53783A7C18691E35D379724FE
:100324000000938464DC8044DC40FD1763D2070240
:10033400804049E89305C01A4A85EF00D00E2A840C
:100344003DE523A004006D3FB1472320F900B1A08F
:100354000317C40031EBC17785075CC4130584051A
:10036400232204063525693F214623200400232443
:1003740004002322040023280400232A0400232C3D
:10038400040081451305C405392D232A0402232CB6
:1003940004022324040423260404B24022852244B4
:1003A400924402494101828013048406BDBF9147EF
:1003B400232005005CC1310508C41306001A8145D9
:1003C400DD2380C0A28485B7411122C406C62A84D5
:1003D40025371C5089C72244B240410115B79707FD
:1003E4000000938707E51CD083A7C186EDF7D13DB4
:1003F400DDB7411106C60937B240172600001306BF
:10040400A6CE97050000938545E70145410105A067
:10041400411117260000130626CD97050000938589
:1004240025E8014506C62120B2404101D1BD7971BC
:1004340022D44AD04ECE52CC5AC85EC606D626D254
:1004440056CAAA892E8A32840149054BFD5B0444AD
:10045400832A4400FD1A63D00A0200406DF8B250AA
:1004640022549254F249624AD24A424BB24B4A85D0
:1004740002594561828083D7C400637BFB00839764
:10048400E40063877701A6854E85029A3369A90043
:1004940093848406C1B71C51011122CC26CA4AC8D0
:1004A40006CE4EC652C40045AA842E8991E3293F44
:1004B4007C50858B81EB8357C40093F7072099E325
:1004C400284CD9298357C400A18B99C31C48BDEF7C
:1004D400A2852685E52A3DC9FD547C50858B81EB98
:1004E4008357C40093F7072099E3284C6529F24009
:1004F40062444249B249224A2685D2440561828037
:100504001CC4050963D70700184C63CBE702638951
:1005140045031C401387170018C02380B7001C44F0
:1005240083450900FD17E9FD1CC463D40702228634
:10053400A9452685D528FD57E300F5FAA94471BFDE
:1005440022862685D520E31C35FD79B7FD59294A35
:10055400F9B71C401387170018C029472380E70008
:10056400F1BFAA8503A5C1853DB7411122C42E84DC
:100574008395E50006C63526634905007C48AA979D
:100584007CC8B2402244410182808357C4007D77F5
:100594007D17F98F2316F400EDB70145828083D7C8
:1005A400C500011122CC26CA4AC84EC606CE93F70E
:1005B4000710AA842E843289B68991C78395E500F1
:1005C400894601464D2C8357C4007D777D17F98FEA
:1005D4008315E4002316F4006244F240CE864A8672
:1005E400B24942492685D2440561D5A4411122C4A9
:1005F4002E848395E50006C6BD2C7D578317C40061
:10060400631BE5007D777D17F98F2316F400B24054
:100614002244410182800567D98F2316F40068C8FB
:10062400FDB78395E5008DA2011122CC26CA4AC8E4
:1006340006CE4EC62A89AE84328401C51C5191E38C
:1006440061331C4C1CC48357C400A18B99C31C4840
:1006540091EFA2854A859D2811C9FD54F240624458
:100664004249B2492685D244056182801C4018481B
:1006740093F9F40F93F4F40F3385E7405C48634730
:10068400F500A2854A85EF00407F61F91C44FD17FF
:100694001CC41C401387170018C023803701584816
:1006A400930715006309F7008357C400858BDDD7D2
:1006B400A947E395F4FAA2854A85EF00007C59DD49
:1006C40069BF2E86AA8503A5C185B9BF411126C27B
:1006D400AA8403A5C18522C406C62E8401C51C5163
:1006E40091E3DD318317C40013F7870029E713F77B
:1006F400070109EB254798C093E707042316F40084
:100704007D55BDA013F747001DC34C5889C99307F5
:1007140044046384F50026853129232A04028317BF
:10072400C40018482322040093F7B7FD18C093E7C8
:1007340087002316F400184819EB93F707281307CA
:1007440000206386E700A2852685EF00D00083178A
:10075400C40013F7170015C35848232404003307B3
:10076400E04018CC1848014501E713F7070849F79A
:10077400B240224492444101828013F7270081460B
:1007840011E3544814C4F9BF411122C42A842E85AC
:1007940023A8018606C6EF00700BFD576316F5000B
:1007A40083A7018791C31CC0B240224441018280C7
:1007B40083A7C1856380A70C5C4D011122CC06CEB2
:1007C40026CA4AC84EC62A84A9C7DC4785C38144C1
:1007D400130900085C4CDC47A6978C438DE5910413
:1007E400E39A24FF5C4C2285CC47A9265C4C8C43BD
:1007F40099C1228581265C4C844781CCA6852285BB
:1008040084400D2EDDBF83A9050022852526CE85D3
:10081400F1B74C4899C12285312E4C4C99C122859F
:10082400112E0C5899C1228531264C5899C1228524
:1008340011260C5C99C12285F52C2C4499C1228582
:10084400D52C6C4099C12285F5244C5499C122853C
:10085400D5241C5089CB22856244F240D2444249BB
:10086400B24905618287F2406244D2444249B249A6
:10087400056182808280411122C42A842E85B2853A
:10088400368623A8018606C6EF00807EFD576316D0
:10089400F50083A7018791C31CC0B24022444101E3
:1008A4008280411122C42A842E85B285368623A8EB
:1008B400018606C6EF00807CFD576316F50083A70A
:1008C400018791C31CC0B24022444101828041117E
:1008D40022C42A842E85B285368623A8018606C6BC
:1008E400EF00407CFD576316F50083A7018791C391
:1008F4001CC0B240224441018280411122C426C25C
:10090400171400001304C47D971400009384447DDD
:10091400818C4AC006C6898401496315990217145B
:1009240000001304E47B971400009384A47B818C5F
:1009340089840149631D9900B240224492440249CA
:10094400410182801C40050911048297F9B71C40BB
:10095400050911048297F9BF411122C426C2171454
:10096400000013046478971400009384A477058C22
:1009740006C6098411E4B2402244924441018280B3
:100984007D1493172400A6979C438297E5B7828031
:1009940082808280828082808280054582800545B3
:1009A4008280828082802A8311C62300B3007D1650
:1009B400050365FE8280011152C4138A418622CC4C
:1009C4002A8403250A0026CA4AC84EC606CEAE8427
:1009D400B2893689D137138741891C4381EF9387C4
:1009E400419F1CC31307000001C7184323A4E70851
:1009F4009387419FD843FD4603250A0063DCE60044
:100A040055377D55F2406244D2444249B249224AA4
:100A14000561828005CC03A88708E30308FE9318C8
:100A24002700C29823A038018326081005463316F0
:100A3400E600D18E2320D81023A028098946631705
:100A4400D40083264810D18E2322D8109306170091
:100A54000A07D4C3BA9784C7B137014565B779711A
:100A64005EC6938B41865AC82A8B03A50B0056CACF
:100A740062C466C206D622D426D24AD04ECE52CC06
:100A84006AC0AE8A138C4189013F854C83240C00D3
:100A94008DE0225403A50B00B25092540259F2493E
:100AA400624AD24A424BB24B224C924C024D4561AF
:100AB400D5BDC04083A984081309F4FF0A04338A0E
:100AC40089002694E34709FC638C0A0063960900B5
:100AD4007D19711A7114FDB78327CA07E39A57FF6A
:100AE400D8405C407D176318270323A22401EDD36B
:100AF40003AD44006388090083A6091033972C01D1
:100B0400F98E89EE8297D84083270C00E310A7F969
:100B1400E380F4FCA5BF23220400D1BF83A64910BF
:100B24008325CAFF758F01E75A858297E9BF2E8511
:100B34008297D1BFD1CD83A7C5FF011122CC06CEA8
:100B44001384C5FF63D307003E942AC6CD2A1387B6
:100B5400C1891C43324581EB2322040000C3624453
:100B6400F2400561C5A2637DF4001040B306C400E1
:100B74006396D7009443DC43B29614C05CC0F9BFBB
:100B84003E87DC4399C3E37DF4FE14433306D70068
:100B9400631F86001040B29614C33306D700E39057
:100BA400C7FC9043DC43B29614C35CC34DBF63756A
:100BB400C400B1471CC165B71040B306C4006396B6
:100BC400D7009443DC43B29614C05CC040C341BF19
:100BD400828041114AC0138981898327090022C474
:100BE40026C206C6AA842E8489E781452D2923209E
:100BF400A900A285268505297D59631A25017D54FE
:100C0400B240228522449244024941018280130465
:100C140035007198E30685FEB305A440268521219D
:100C2400E31025FFE9BF011126CA93843500F1982A
:100C34004AC806CE22CC4EC652C4A104B1472A8962
:100C440063F3F406BE8463E2B4064A85CD2893892F
:100C5400C18983A709003E8425E4A6854A85953F7A
:100C6400FD572A84631BF50C03A40900A287D5E76A
:100C74005DCC032A040081454A85229A6D266318B7
:100C8400AA0A1C404A859D8CA685A137FD5763009E
:100C9400F50A1C40A6971CC083A70900D84349E362
:100CA40023AE01883DA8E3D004FA2320F9000145CE
:100CB400F2406244D2444249B249224A05618280E8
:100CC4001440858E63C806042D47637DD70204C093
:100CD400330794006396870223A0E9005C4014C3A1
:100CE4005CC34A8585201305B400930744006199C9
:100CF4003307F540E30EF5FA3A94898F1CC04DBFD3
:100D0400D8C3E9BF58406395870023A0E900D1BF49
:100D1400D8C3C1BFA287404081B73E84DC4381BFB2
:100D24003E87DC43E39E87FE232207005DBFB14775
:100D34002320F9004A8539209DBF04C15DB713857E
:100D4400418899B913854188B1B98397C5000111C8
:100D540022CC26CA06CE4AC84EC613F78700AA84F8
:100D64002E8469E3D8416345E000B841635AE00A40
:100D740058545DC703A904009396370123A00400C7
:100D840063DD060670488357C400918B99C75C40A5
:100D94001D8E5C5899C33C401D8E5C540C5081469A
:100DA400268582977D578317C400631DE500944010
:100DB40075476364D70A3707402005073357D700C0
:100DC400058B41CF18482322040018C0139737011C
:100DD40063580700FD576314F5009C4091E368C80D
:100DE4004C5823A024018DCD930744046384F5005B
:100DF40026858933232A040225A00C500146854602
:100E040026850297FD572A86E31FF5F69C40A5DF49
:100E140075476385E7005947639FE70223A02401D0
:100E2400014589A083A90501E38C09FE03A90500F6
:100E34008D8B23A0350133093941014791E3D8490A
:100E440018C4E35F20FD1C540C50CA864E862685C8
:100E540082976340A0028317C40093E70704231614
:100E6400F4007D55F2406244D2444249B2490561DE
:100E74008280AA993309A940E9B79C49411106C661
:100E840022C426C281EB8144B24022442685924486
:100E940041018280AA842E8409C51C5199E3EFF094
:100EA400AFD28317C400E5D37850058B11E793F7CD
:100EB400072099E3284CCD342685A28579357C50CA
:100EC400AA84858BF1F38357C40093F70720CDFFE1
:100ED400284CC93C55BFAA8519ED17160000130606
:100EE400A62097050000938585F9171500001305C2
:100EF40065206FF0CFD303A5C18541B75971A2D442
:100F04002E848395E500A6D2CAD086D6B2843689CB
:100F140063D305028357C40093F707088DEB1307C7
:100F24000040B65026542320F90098C00659965420
:100F340001456561828030004520E34D05FCB247E0
:100F44003D67F98F7977BA9793B71700C9BF81477F
:100F540013070004F9B783D7C500011122CC06CECC
:100F640026CA4AC8898B2E8489CF930774041CC06F
:100F74001CC885475CC8F2406244D24442490561BA
:100F8400828074003000AA84953F22492685CA8550
:100F940059398317C40011E913F7072069FFF19B3E
:100FA40093E727002316F400C9B793E7070823162D
:100FB400F400B24708C008C8232A2401CDDF8315F2
:100FC400E4002685352845D98357C400F19B93E76F
:100FD40017002316F40045B7411122C42A842E8534
:100FE400B28523A8018606C68528FD576316F50039
:100FF40083A7018791C31CC0B2402244410182806F
:10100400411122C42A842E8523A8018606C6992864
:10101400FD576316F50083A7018791C31CC0B24036
:10102400224441018280411122C42A842E8523A8AE
:10103400018606C69128FD576316F50083A701872C
:1010440091C31CC0B24022444101828093078005B1
:1010540023A8F1867D5582809307800523A8F18615
:101064007D5582809307800523A8F18601458280FF
:101074009307800523A8F1867D5582809307800518
:1010840023A8F1867D5582801387018A1C4389C772
:101094003E9508C33E858280938701A83E9508C388
:1010A4003E8582809307800523A8F1867D55828042
:0210B40001A099
:1010B80048656C6C6F2C20524953432D56212053A0
:1010C80068776574616E6B20697320686572652E38
:0110D8000017
:0410DC000000000010
:0420E00040010100BA
:0420E4000A010100EC
:1020E8000000000003000000A4210100000000001F
:1020F800A42101000C22010074220100000000004C
:1021080000000000000000000000000000000000C7
:1021180000000000000000000000000000000000B7
:1021280000000000000000000000000000000000A7
:0821380000000000000000009F
:1021400000000000F4200100620A01007421010077
:04000003100000DA0F
:00000001FF
